{
  "contractName": "AddressStringUtilTest",
  "abi": [
    {
      "inputs": [
        {
          "internalType": "address",
          "name": "addr",
          "type": "address"
        },
        {
          "internalType": "uint256",
          "name": "len",
          "type": "uint256"
        }
      ],
      "name": "toAsciiString",
      "outputs": [
        {
          "internalType": "string",
          "name": "",
          "type": "string"
        }
      ],
      "stateMutability": "pure",
      "type": "function"
    }
  ],
  "bytecode": "0x608060405234801561001057600080fd5b50610347806100206000396000f3fe608060405234801561001057600080fd5b506004361061002b5760003560e01c80635768786e14610030575b600080fd5b61007c6004803603604081101561004657600080fd5b81019080803573ffffffffffffffffffffffffffffffffffffffff169060200190929190803590602001909291905050506100f7565b6040518080602001828103825283818151815260200191508051906020019080838360005b838110156100bc5780820151818401526020810190506100a1565b50505050905090810190601f1680156100e95780820380516001836020036101000a031916815260200191505b509250505060405180910390f35b6060610103838361010b565b905092915050565b606060006002838161011957fe5b061480156101275750600082115b8015610134575060288211155b6101a6576040517f08c379a000000000000000000000000000000000000000000000000000000000815260040180806020018281038252601e8152602001807f41646472657373537472696e675574696c3a20494e56414c49445f4c454e000081525060200191505060405180910390fd5b6060826040519080825280601f01601f1916602001820160405280156101db5781602001600182028038833980820191505090505b50905060008473ffffffffffffffffffffffffffffffffffffffff16905060008090505b6002858161020957fe5b048110156102da5760008160130360080283901c9050600060048260ff16901c9050600060048260ff16901b83039050610242826102e6565b86856002028151811061025157fe5b60200101907effffffffffffffffffffffffffffffffffffffffffffffffffffffffffffff1916908160001a905350610289816102e6565b86600186600202018151811061029b57fe5b60200101907effffffffffffffffffffffffffffffffffffffffffffffffffffffffffffff1916908160001a90535050505080806001019150506101ff565b50819250505092915050565b6000600a8260ff161015610302576030820160f81b905061030c565b6037820160f81b90505b91905056fea2646970667358221220b9037750617b94c4e4c9ec7ad37ae0ca3ec5af4d6eae9e7bd2164767aa07579564736f6c63430006020033",
  "source": "// SPDX-License-Identifier: GPL-3.0-or-later\r\n\r\npragma solidity >=0.5.0;\r\n\r\nimport '../utils/AddressStringUtil.sol';\r\n\r\ncontract AddressStringUtilTest {\r\n    function toAsciiString(address addr, uint256 len) external pure returns (string memory) {\r\n        return AddressStringUtil.toAsciiString(addr, len);\r\n    }\r\n}\r\n",
  "sourcePath": "C:/Users/Dell/documents/Myproject_test081/take2-swap-lib/contracts/test/AddressStringUtilTest.sol",
  "compiler": {
    "name": "solc",
    "version": "0.6.2+commit.bacdbe57.Emscripten.clang"
  },
  "schemaVersion": "3.4.1",
  "updatedAt": "2021-09-18T10:48:19.654Z",
  "devdoc": {
    "methods": {}
  },
  "userdoc": {
    "methods": {}
  }
}