{
  "contractName": "FixedPointTest",
  "abi": [
    {
      "inputs": [
        {
          "internalType": "uint112",
          "name": "x",
          "type": "uint112"
        }
      ],
      "name": "encode",
      "outputs": [
        {
          "components": [
            {
              "internalType": "uint224",
              "name": "_x",
              "type": "uint224"
            }
          ],
          "internalType": "struct FixedPoint.uq112x112",
          "name": "",
          "type": "tuple"
        }
      ],
      "stateMutability": "pure",
      "type": "function"
    },
    {
      "inputs": [
        {
          "internalType": "uint144",
          "name": "x",
          "type": "uint144"
        }
      ],
      "name": "encode144",
      "outputs": [
        {
          "components": [
            {
              "internalType": "uint256",
              "name": "_x",
              "type": "uint256"
            }
          ],
          "internalType": "struct FixedPoint.uq144x112",
          "name": "",
          "type": "tuple"
        }
      ],
      "stateMutability": "pure",
      "type": "function"
    },
    {
      "inputs": [
        {
          "components": [
            {
              "internalType": "uint224",
              "name": "_x",
              "type": "uint224"
            }
          ],
          "internalType": "struct FixedPoint.uq112x112",
          "name": "self",
          "type": "tuple"
        },
        {
          "internalType": "uint112",
          "name": "y",
          "type": "uint112"
        }
      ],
      "name": "div",
      "outputs": [
        {
          "components": [
            {
              "internalType": "uint224",
              "name": "_x",
              "type": "uint224"
            }
          ],
          "internalType": "struct FixedPoint.uq112x112",
          "name": "",
          "type": "tuple"
        }
      ],
      "stateMutability": "pure",
      "type": "function"
    },
    {
      "inputs": [
        {
          "internalType": "uint112",
          "name": "numerator",
          "type": "uint112"
        },
        {
          "internalType": "uint112",
          "name": "denominator",
          "type": "uint112"
        }
      ],
      "name": "fraction",
      "outputs": [
        {
          "components": [
            {
              "internalType": "uint224",
              "name": "_x",
              "type": "uint224"
            }
          ],
          "internalType": "struct FixedPoint.uq112x112",
          "name": "",
          "type": "tuple"
        }
      ],
      "stateMutability": "pure",
      "type": "function"
    },
    {
      "inputs": [
        {
          "components": [
            {
              "internalType": "uint224",
              "name": "_x",
              "type": "uint224"
            }
          ],
          "internalType": "struct FixedPoint.uq112x112",
          "name": "self",
          "type": "tuple"
        },
        {
          "internalType": "uint256",
          "name": "y",
          "type": "uint256"
        }
      ],
      "name": "mul",
      "outputs": [
        {
          "components": [
            {
              "internalType": "uint256",
              "name": "_x",
              "type": "uint256"
            }
          ],
          "internalType": "struct FixedPoint.uq144x112",
          "name": "",
          "type": "tuple"
        }
      ],
      "stateMutability": "pure",
      "type": "function"
    },
    {
      "inputs": [
        {
          "components": [
            {
              "internalType": "uint224",
              "name": "_x",
              "type": "uint224"
            }
          ],
          "internalType": "struct FixedPoint.uq112x112",
          "name": "self",
          "type": "tuple"
        }
      ],
      "name": "decode",
      "outputs": [
        {
          "internalType": "uint112",
          "name": "",
          "type": "uint112"
        }
      ],
      "stateMutability": "pure",
      "type": "function"
    },
    {
      "inputs": [
        {
          "components": [
            {
              "internalType": "uint256",
              "name": "_x",
              "type": "uint256"
            }
          ],
          "internalType": "struct FixedPoint.uq144x112",
          "name": "self",
          "type": "tuple"
        }
      ],
      "name": "decode144",
      "outputs": [
        {
          "internalType": "uint144",
          "name": "",
          "type": "uint144"
        }
      ],
      "stateMutability": "pure",
      "type": "function"
    },
    {
      "inputs": [
        {
          "components": [
            {
              "internalType": "uint224",
              "name": "_x",
              "type": "uint224"
            }
          ],
          "internalType": "struct FixedPoint.uq112x112",
          "name": "self",
          "type": "tuple"
        }
      ],
      "name": "reciprocal",
      "outputs": [
        {
          "components": [
            {
              "internalType": "uint224",
              "name": "_x",
              "type": "uint224"
            }
          ],
          "internalType": "struct FixedPoint.uq112x112",
          "name": "",
          "type": "tuple"
        }
      ],
      "stateMutability": "pure",
      "type": "function"
    },
    {
      "inputs": [
        {
          "components": [
            {
              "internalType": "uint224",
              "name": "_x",
              "type": "uint224"
            }
          ],
          "internalType": "struct FixedPoint.uq112x112",
          "name": "self",
          "type": "tuple"
        }
      ],
      "name": "sqrt",
      "outputs": [
        {
          "components": [
            {
              "internalType": "uint224",
              "name": "_x",
              "type": "uint224"
            }
          ],
          "internalType": "struct FixedPoint.uq112x112",
          "name": "",
          "type": "tuple"
        }
      ],
      "stateMutability": "pure",
      "type": "function"
    }
  ],
  "bytecode": "0x608060405234801561001057600080fd5b50610f02806100206000396000f3fe608060405234801561001057600080fd5b50600436106100935760003560e01c80634fd04a40116100665780634fd04a40146101585780635f9f4c3b14610188578063af35b769146101b8578063c814e314146101e8578063ca2d02991461021857610093565b80632da10c081461009857806331f92b13146100c85780633f1626c8146100f85780634de4cf9214610128575b600080fd5b6100b260048036036100ad9190810190610a21565b610248565b6040516100bf9190610d5c565b60405180910390f35b6100e260048036036100dd91908101906109f8565b610272565b6040516100ef9190610d5c565b60405180910390f35b610112600480360361010d91908101906109f8565b61029a565b60405161011f9190610d5c565b60405180910390f35b610142600480360361013d9190810190610b3d565b6102c2565b60405161014f9190610d5c565b60405180910390f35b610172600480360361016d91908101906109f8565b6102dc565b60405161017f9190610d92565b60405180910390f35b6101a2600480360361019d9190810190610ac2565b6102fe565b6040516101af9190610dad565b60405180910390f35b6101d260048036036101cd9190810190610a5d565b610320565b6040516101df9190610d77565b60405180910390f35b61020260048036036101fd9190810190610b79565b61034a565b60405161020f9190610d77565b60405180910390f35b610232600480360361022d9190810190610b14565b610362565b60405161023f9190610d5c565b60405180910390f35b6102506108ba565b61026a838036036102649190810190610a99565b8361037a565b905092915050565b61027a6108ba565b6102938280360361028e9190810190610a99565b610464565b9050919050565b6102a26108ba565b6102bb828036036102b69190810190610a99565b610540565b9050919050565b6102ca6108ba565b6102d483836105aa565b905092915050565b60006102f7828036036102f29190810190610a99565b6106a6565b9050919050565b6000610319828036036103149190810190610aeb565b6106d9565b9050919050565b6103286108eb565b6103428380360361033c9190810190610a99565b836106ee565b905092915050565b6103526108eb565b61035b826107ae565b9050919050565b61036a6108ba565b610373826107e7565b9050919050565b6103826108ba565b6000826dffffffffffffffffffffffffffff1614156103d6576040517f08c379a00000000000000000000000000000000000000000000000000000000081526004016103cd90610d3c565b60405180910390fd5b6040518060200160405280836dffffffffffffffffffffffffffff167bffffffffffffffffffffffffffffffffffffffffffffffffffffffff1685600001517bffffffffffffffffffffffffffffffffffffffffffffffffffffffff168161043a57fe5b047bffffffffffffffffffffffffffffffffffffffffffffffffffffffff16815250905092915050565b61046c6108ba565b600082600001517bffffffffffffffffffffffffffffffffffffffffffffffffffffffff1614156104d2576040517f08c379a00000000000000000000000000000000000000000000000000000000081526004016104c990610cfc565b60405180910390fd5b604051806020016040528083600001517bffffffffffffffffffffffffffffffffffffffffffffffffffffffff16607060ff16607060ff166001901b901b8161051757fe5b047bffffffffffffffffffffffffffffffffffffffffffffffffffffffff168152509050919050565b6105486108ba565b6040518060200160405280603861058085600001517bffffffffffffffffffffffffffffffffffffffffffffffffffffffff16610858565b901b7bffffffffffffffffffffffffffffffffffffffffffffffffffffffff168152509050919050565b6105b26108ba565b6000826dffffffffffffffffffffffffffff1611610605576040517f08c379a00000000000000000000000000000000000000000000000000000000081526004016105fc90610d3c565b60405180910390fd5b6040518060200160405280836dffffffffffffffffffffffffffff16607060ff16866dffffffffffffffffffffffffffff167bffffffffffffffffffffffffffffffffffffffffffffffffffffffff16901b7bffffffffffffffffffffffffffffffffffffffffffffffffffffffff168161067c57fe5b047bffffffffffffffffffffffffffffffffffffffffffffffffffffffff16815250905092915050565b6000607060ff1682600001517bffffffffffffffffffffffffffffffffffffffffffffffffffffffff16901c9050919050565b6000607060ff168260000151901c9050919050565b6106f66108eb565b600080831480610757575083600001517bffffffffffffffffffffffffffffffffffffffffffffffffffffffff16838486600001517bffffffffffffffffffffffffffffffffffffffffffffffffffffffff16029250828161075457fe5b04145b610796576040517f08c379a000000000000000000000000000000000000000000000000000000000815260040161078d90610d1c565b60405180910390fd5b60405180602001604052808281525091505092915050565b6107b66108eb565b6040518060200160405280607060ff168471ffffffffffffffffffffffffffffffffffff16901b8152509050919050565b6107ef6108ba565b6040518060200160405280607060ff16846dffffffffffffffffffffffffffff167bffffffffffffffffffffffffffffffffffffffffffffffffffffffff16901b7bffffffffffffffffffffffffffffffffffffffffffffffffffffffff168152509050919050565b600060038211156108a757819050600060016002848161087457fe5b040190505b818110156108a15780915060028182858161089057fe5b04018161089957fe5b049050610879565b506108b5565b600082146108b457600190505b5b919050565b604051806020016040528060007bffffffffffffffffffffffffffffffffffffffffffffffffffffffff1681525090565b6040518060200160405280600081525090565b60006020828403121561091057600080fd5b81905092915050565b60006020828403121561092b57600080fd5b6109356020610dc8565b90506000610945848285016109ce565b60008301525092915050565b60006020828403121561096357600080fd5b81905092915050565b60006020828403121561097e57600080fd5b6109886020610dc8565b90506000610998848285016109e3565b60008301525092915050565b6000813590506109b381610e70565b92915050565b6000813590506109c881610e87565b92915050565b6000813590506109dd81610e9e565b92915050565b6000813590506109f281610eb5565b92915050565b600060208284031215610a0a57600080fd5b6000610a18848285016108fe565b91505092915050565b60008060408385031215610a3457600080fd5b6000610a42858286016108fe565b9250506020610a53858286016109a4565b9150509250929050565b60008060408385031215610a7057600080fd5b6000610a7e858286016108fe565b9250506020610a8f858286016109e3565b9150509250929050565b600060208284031215610aab57600080fd5b6000610ab984828501610919565b91505092915050565b600060208284031215610ad457600080fd5b6000610ae284828501610951565b91505092915050565b600060208284031215610afd57600080fd5b6000610b0b8482850161096c565b91505092915050565b600060208284031215610b2657600080fd5b6000610b34848285016109a4565b91505092915050565b60008060408385031215610b5057600080fd5b6000610b5e858286016109a4565b9250506020610b6f858286016109a4565b9150509250929050565b600060208284031215610b8b57600080fd5b6000610b99848285016109b9565b91505092915050565b6000610baf601b83610df5565b91507f4669786564506f696e743a205a45524f5f5245434950524f43414c00000000006000830152602082019050919050565b6000610bef602383610df5565b91507f4669786564506f696e743a204d554c5449504c49434154494f4e5f4f5645524660008301527f4c4f5700000000000000000000000000000000000000000000000000000000006020830152604082019050919050565b6000610c55601783610df5565b91507f4669786564506f696e743a204449565f42595f5a45524f0000000000000000006000830152602082019050919050565b602082016000820151610c9e6000850182610cde565b50505050565b602082016000820151610cba6000850182610ced565b50505050565b610cc981610e06565b82525050565b610cd881610e20565b82525050565b610ce781610e3e565b82525050565b610cf681610e66565b82525050565b60006020820190508181036000830152610d1581610ba2565b9050919050565b60006020820190508181036000830152610d3581610be2565b9050919050565b60006020820190508181036000830152610d5581610c48565b9050919050565b6000602082019050610d716000830184610c88565b92915050565b6000602082019050610d8c6000830184610ca4565b92915050565b6000602082019050610da76000830184610cc0565b92915050565b6000602082019050610dc26000830184610ccf565b92915050565b6000604051905081810181811067ffffffffffffffff82111715610deb57600080fd5b8060405250919050565b600082825260208201905092915050565b60006dffffffffffffffffffffffffffff82169050919050565b600071ffffffffffffffffffffffffffffffffffff82169050919050565b60007bffffffffffffffffffffffffffffffffffffffffffffffffffffffff82169050919050565b6000819050919050565b610e7981610e06565b8114610e8457600080fd5b50565b610e9081610e20565b8114610e9b57600080fd5b50565b610ea781610e3e565b8114610eb257600080fd5b50565b610ebe81610e66565b8114610ec957600080fd5b5056fea2646970667358221220051d51be994217e8da2ce8d4ae48d8887ad00b84503e61eb817acd7fd0ba78d364736f6c63430006020033",
  "source": "// SPDX-License-Identifier: GPL-3.0-or-later\r\n\r\npragma solidity >=0.5.0;\r\npragma experimental ABIEncoderV2;\r\n\r\nimport '../utils/FixedPoint.sol';\r\n\r\ncontract FixedPointTest {\r\n    function encode(uint112 x) external pure returns (FixedPoint.uq112x112 memory) {\r\n        return FixedPoint.encode(x);\r\n    }\r\n\r\n    function encode144(uint144 x) external pure returns (FixedPoint.uq144x112 memory) {\r\n        return FixedPoint.encode144(x);\r\n    }\r\n\r\n    // divide a UQ112x112 by a uint112, returning a UQ112x112\r\n    function div(FixedPoint.uq112x112 calldata self, uint112 y) external pure returns (FixedPoint.uq112x112 memory) {\r\n        return FixedPoint.div(self, y);\r\n    }\r\n\r\n    function fraction(uint112 numerator, uint112 denominator) external pure returns (FixedPoint.uq112x112 memory) {\r\n        return FixedPoint.fraction(numerator, denominator);\r\n    }\r\n\r\n    // multiply a UQ112x112 by a uint, returning a UQ144x112\r\n    function mul(FixedPoint.uq112x112 calldata self, uint256 y) external pure returns (FixedPoint.uq144x112 memory) {\r\n        return FixedPoint.mul(self, y);\r\n    }\r\n\r\n    // decode a UQ112x112 in a uint container into a uint by truncating after the radix point\r\n    function decode(FixedPoint.uq112x112 calldata self) external pure returns (uint112) {\r\n        return FixedPoint.decode(self);\r\n    }\r\n\r\n    function decode144(FixedPoint.uq144x112 calldata self) external pure returns (uint144) {\r\n        return FixedPoint.decode144(self);\r\n    }\r\n\r\n    function reciprocal(FixedPoint.uq112x112 calldata self) external pure returns (FixedPoint.uq112x112 memory) {\r\n        return FixedPoint.reciprocal(self);\r\n    }\r\n\r\n    function sqrt(FixedPoint.uq112x112 calldata self) external pure returns (FixedPoint.uq112x112 memory) {\r\n        return FixedPoint.sqrt(self);\r\n    }\r\n}\r\n",
  "sourcePath": "C:/Users/Dell/documents/Myproject_test081/take2-swap-lib/contracts/test/FixedPointTest.sol",
  "compiler": {
    "name": "solc",
    "version": "0.6.2+commit.bacdbe57.Emscripten.clang"
  },
  "schemaVersion": "3.4.1",
  "updatedAt": "2021-09-18T10:48:19.656Z",
  "devdoc": {
    "methods": {}
  },
  "userdoc": {
    "methods": {}
  }
}