{
  "contractName": "SafeBEP20NamerTest",
  "abi": [
    {
      "inputs": [
        {
          "internalType": "address",
          "name": "token",
          "type": "address"
        }
      ],
      "name": "tokenSymbol",
      "outputs": [
        {
          "internalType": "string",
          "name": "",
          "type": "string"
        }
      ],
      "stateMutability": "view",
      "type": "function"
    },
    {
      "inputs": [
        {
          "internalType": "address",
          "name": "token",
          "type": "address"
        }
      ],
      "name": "tokenName",
      "outputs": [
        {
          "internalType": "string",
          "name": "",
          "type": "string"
        }
      ],
      "stateMutability": "view",
      "type": "function"
    }
  ],
  "bytecode": "0x608060405234801561001057600080fd5b506108d6806100206000396000f3fe608060405234801561001057600080fd5b50600436106100365760003560e01c8063033b9b4f1461003b578063e54f7522146100f8575b600080fd5b61007d6004803603602081101561005157600080fd5b81019080803573ffffffffffffffffffffffffffffffffffffffff1690602001909291905050506101b5565b6040518080602001828103825283818151815260200191508051906020019080838360005b838110156100bd5780820151818401526020810190506100a2565b50505050905090810190601f1680156100ea5780820380516001836020036101000a031916815260200191505b509250505060405180910390f35b61013a6004803603602081101561010e57600080fd5b81019080803573ffffffffffffffffffffffffffffffffffffffff1690602001909291905050506101c7565b6040518080602001828103825283818151815260200191508051906020019080838360005b8381101561017a57808201518184015260208101905061015f565b50505050905090810190601f1680156101a75780820380516001836020036101000a031916815260200191505b509250505060405180910390f35b60606101c0826101d9565b9050919050565b60606101d282610214565b9050919050565b6060806101ed836395d89b4160e01b61024f565b905060008151141561020a57610202836104de565b91505061020f565b809150505b919050565b606080610228836306fdde0360e01b61024f565b90506000815114156102455761023d836104f2565b91505061024a565b809150505b919050565b6060600060608473ffffffffffffffffffffffffffffffffffffffff1684604051602401604051602081830303815290604052907bffffffffffffffffffffffffffffffffffffffffffffffffffffffff19166020820180517bffffffffffffffffffffffffffffffffffffffffffffffffffffffff83818316178352505050506040518082805190602001908083835b6020831061030357805182526020820191506020810190506020830392506102e0565b6001836020036101000a038019825116818451168082178552505050505050905001915050600060405180830381855afa9150503d8060008114610363576040519150601f19603f3d011682016040523d82523d6000602084013e610368565b606091505b509150915081158061037b575060008151145b156103995760405180602001604052806000815250925050506104d8565b6020815114156103e05760008180602001905160208110156103ba57600080fd5b810190808051906020019092919050505090506103d681610506565b93505050506104d8565b6040815111156104c3578080602001905160208110156103ff57600080fd5b810190808051604051939291908464010000000082111561041f57600080fd5b8382019150602082018581111561043557600080fd5b825186600182028301116401000000008211171561045257600080fd5b8083526020830192505050908051906020019080838360005b8381101561048657808201518184015260208101905061046b565b50505050905090810190601f1680156104b35780820380516001836020036101000a031916815260200191505b50604052505050925050506104d8565b60405180602001604052806000815250925050505b92915050565b60606104eb82600661069a565b9050919050565b60606104ff82602861069a565b9050919050565b60608060206040519080825280601f01601f19166020018201604052801561053d5781602001600182028038833980820191505090505b509050600080905060008090505b60208110156105e857600085826020811061056257fe5b1a60f81b9050600060f81b817effffffffffffffffffffffffffffffffffffffffffffffffffffffffffffff1916146105da57808484815181106105a257fe5b60200101907effffffffffffffffffffffffffffffffffffffffffffffffffffffffffffff1916908160001a90535082806001019350505b50808060010191505061054b565b506060816040519080825280601f01601f19166020018201604052801561061e5781602001600182028038833980820191505090505b50905060008090505b8281101561068e5783818151811061063b57fe5b602001015160f81c60f81b82828151811061065257fe5b60200101907effffffffffffffffffffffffffffffffffffffffffffffffffffffffffffff1916908160001a9053508080600101915050610627565b50809350505050919050565b60606000600283816106a857fe5b061480156106b65750600082115b80156106c3575060288211155b610735576040517f08c379a000000000000000000000000000000000000000000000000000000000815260040180806020018281038252601e8152602001807f41646472657373537472696e675574696c3a20494e56414c49445f4c454e000081525060200191505060405180910390fd5b6060826040519080825280601f01601f19166020018201604052801561076a5781602001600182028038833980820191505090505b50905060008473ffffffffffffffffffffffffffffffffffffffff16905060008090505b6002858161079857fe5b048110156108695760008160130360080283901c9050600060048260ff16901c9050600060048260ff16901b830390506107d182610875565b8685600202815181106107e057fe5b60200101907effffffffffffffffffffffffffffffffffffffffffffffffffffffffffffff1916908160001a90535061081881610875565b86600186600202018151811061082a57fe5b60200101907effffffffffffffffffffffffffffffffffffffffffffffffffffffffffffff1916908160001a905350505050808060010191505061078e565b50819250505092915050565b6000600a8260ff161015610891576030820160f81b905061089b565b6037820160f81b90505b91905056fea2646970667358221220155f46eb7ea24d327c265fe29d2f2f4b2d9bba375dd3db7bcac2951dce10df8164736f6c63430006020033",
  "source": "// SPDX-License-Identifier: GPL-3.0-or-later\r\n\r\npragma solidity >=0.5.0;\r\n\r\nimport '../utils/SafeBEP20Namer.sol';\r\n\r\n// used for testing the logic of token naming\r\ncontract SafeBEP20NamerTest {\r\n    function tokenSymbol(address token) public view returns (string memory) {\r\n        return SafeBEP20Namer.tokenSymbol(token);\r\n    }\r\n\r\n    function tokenName(address token) public view returns (string memory) {\r\n        return SafeBEP20Namer.tokenName(token);\r\n    }\r\n}\r\n\r\n// does not implement name or symbol\r\ncontract NamerTestFakeOptionalBEP20 {\r\n\r\n}\r\n\r\n// complies with BEP20 and returns strings\r\ncontract NamerTestFakeCompliantBEP20 {\r\n    string public name;\r\n    string public symbol;\r\n\r\n    constructor(string memory name_, string memory symbol_) public {\r\n        name = name_;\r\n        symbol = symbol_;\r\n    }\r\n}\r\n\r\n// implements name and symbol but returns bytes32\r\ncontract NamerTestFakeNoncompliantBEP20 {\r\n    bytes32 public name;\r\n    bytes32 public symbol;\r\n\r\n    constructor(bytes32 name_, bytes32 symbol_) public {\r\n        name = name_;\r\n        symbol = symbol_;\r\n    }\r\n}\r\n",
  "sourcePath": "C:/Users/Dell/documents/Myproject_test081/take2-swap-lib/contracts/test/SafeBEP20NamerTest.sol",
  "compiler": {
    "name": "solc",
    "version": "0.6.2+commit.bacdbe57.Emscripten.clang"
  },
  "schemaVersion": "3.4.1",
  "updatedAt": "2021-09-18T10:48:19.675Z",
  "devdoc": {
    "methods": {}
  },
  "userdoc": {
    "methods": {}
  }
}