{
  "contractName": "TransferHelperTestFakeFallback",
  "abi": [
    {
      "inputs": [],
      "name": "shouldRevert",
      "outputs": [
        {
          "internalType": "bool",
          "name": "",
          "type": "bool"
        }
      ],
      "stateMutability": "view",
      "type": "function"
    },
    {
      "stateMutability": "payable",
      "type": "receive"
    },
    {
      "inputs": [
        {
          "internalType": "bool",
          "name": "shouldRevert_",
          "type": "bool"
        }
      ],
      "name": "setup",
      "outputs": [],
      "stateMutability": "nonpayable",
      "type": "function"
    }
  ],
  "bytecode": "0x608060405234801561001057600080fd5b50610115806100206000396000f3fe60806040526004361060295760003560e01c8063d3072d8214604c578063e2c169ec146078576047565b366047576000809054906101000a900460ff1615604557600080fd5b005b600080fd5b348015605757600080fd5b50605e60b1565b604051808215151515815260200191505060405180910390f35b348015608357600080fd5b5060af60048036036020811015609857600080fd5b8101908080351515906020019092919050505060c3565b005b6000809054906101000a900460ff1681565b806000806101000a81548160ff0219169083151502179055505056fea2646970667358221220ac45d8a50861aa09278d6238c30f0dcdf72807a2821e2e245d4e0834218dc1a864736f6c63430006020033",
  "source": "// SPDX-License-Identifier: GPL-3.0-or-later\r\n\r\npragma solidity >=0.6.0;\r\n\r\nimport '../utils/TransferHelper.sol';\r\n\r\n// test helper for transfers\r\ncontract TransferHelperTest {\r\n    function safeApprove(\r\n        address token,\r\n        address to,\r\n        uint256 value\r\n    ) external {\r\n        TransferHelper.safeApprove(token, to, value);\r\n    }\r\n\r\n    function safeTransfer(\r\n        address token,\r\n        address to,\r\n        uint256 value\r\n    ) external {\r\n        TransferHelper.safeTransfer(token, to, value);\r\n    }\r\n\r\n    function safeTransferFrom(\r\n        address token,\r\n        address from,\r\n        address to,\r\n        uint256 value\r\n    ) external {\r\n        TransferHelper.safeTransferFrom(token, from, to, value);\r\n    }\r\n\r\n    function safeTransferBNB(address to, uint256 value) external {\r\n        TransferHelper.safeTransferBNB(to, value);\r\n    }\r\n}\r\n\r\n// can revert on failure and returns true if successful\r\ncontract TransferHelperTestFakeBEP20Compliant {\r\n    bool public success;\r\n    bool public shouldRevert;\r\n\r\n    function setup(bool success_, bool shouldRevert_) public {\r\n        success = success_;\r\n        shouldRevert = shouldRevert_;\r\n    }\r\n\r\n    function transfer(address, uint256) public view returns (bool) {\r\n        require(!shouldRevert, 'REVERT');\r\n        return success;\r\n    }\r\n\r\n    function transferFrom(\r\n        address,\r\n        address,\r\n        uint256\r\n    ) public view returns (bool) {\r\n        require(!shouldRevert, 'REVERT');\r\n        return success;\r\n    }\r\n\r\n    function approve(address, uint256) public view returns (bool) {\r\n        require(!shouldRevert, 'REVERT');\r\n        return success;\r\n    }\r\n}\r\n\r\n// only reverts on failure, no return value\r\ncontract TransferHelperTestFakeBEP20Noncompliant {\r\n    bool public shouldRevert;\r\n\r\n    function setup(bool shouldRevert_) public {\r\n        shouldRevert = shouldRevert_;\r\n    }\r\n\r\n    function transfer(address, uint256) public view {\r\n        require(!shouldRevert);\r\n    }\r\n\r\n    function transferFrom(\r\n        address,\r\n        address,\r\n        uint256\r\n    ) public view {\r\n        require(!shouldRevert);\r\n    }\r\n\r\n    function approve(address, uint256) public view {\r\n        require(!shouldRevert);\r\n    }\r\n}\r\n\r\ncontract TransferHelperTestFakeFallback {\r\n    bool public shouldRevert;\r\n\r\n    function setup(bool shouldRevert_) public {\r\n        shouldRevert = shouldRevert_;\r\n    }\r\n\r\n    receive() external payable {\r\n        require(!shouldRevert);\r\n    }\r\n}\r\n",
  "sourcePath": "C:/Users/Dell/documents/Myproject_test081/take2-swap-lib/contracts/test/TransferHelperTest.sol",
  "compiler": {
    "name": "solc",
    "version": "0.6.2+commit.bacdbe57.Emscripten.clang"
  },
  "schemaVersion": "3.4.1",
  "updatedAt": "2021-09-18T10:48:19.722Z",
  "devdoc": {
    "methods": {}
  },
  "userdoc": {
    "methods": {}
  }
}